:020000040800F2
:10000000005000208D5300089D500008A9500008A2
:10001000AF500008B5500008BB50000800000000B9
:10002000000000000000000000000000C1500008B7
:10003000CD50000800000000D9500008E55000082D
:10004000D5530008D5530008D5530008D5530008F0
:10005000D5530008D5530008D5530008D5530008E0
:10006000D5530008D5530008D5530008D5530008D0
:10007000D5530008D5530008D5530008D5530008C0
:10008000D5530008D5530008D5530008D5530008B0
:10009000D5530008D5530008D5530008D5530008A0
:1000A000D5530008D5530008D5530008D553000890
:1000B000D5530008F1500008D5530008D553000867
:1000C000D5530008D5530008D5530008D553000870
:1000D000D5530008D553000809510008D55300082E
:1000E000D5530008D5530008D55300080000000080
:1000F0000000000000000000000000000000000000
:0C01000000000000000000005FF808F1A3
:1001100010B5054C237833B9044B13B10448AFF341
:1001200000800123237010BD180000200000000093
:100130003054000808B5034B1BB103490348AFF323
:10014000008008BD000000001C00002030540008A2
:1001500081F0004102E000BF83F0004330B54FEA78
:1001600041044FEA430594EA050F08BF90EA020FE5
:100170001FBF54EA000C55EA020C7FEA645C7FEA78
:10018000655C00F0E2804FEA5454D4EB5555B8BF9B
:100190006D420CDD2C4480EA020281EA030382EA0C
:1001A000000083EA010180EA020281EA0303362D9E
:1001B00088BF30BD11F0004F4FEA01314FF4801C71
:1001C0004CEA113102D0404261EB410113F0004F83
:1001D0004FEA03334CEA133302D0524263EB43033A
:1001E00094EA050F00F0A780A4F10104D5F1200ED8
:1001F0000DDB02FA0EFC22FA05F2801841F1000133
:1002000003FA0EF2801843FA05F359410EE0A5F106
:1002100020050EF1200E012A03FA0EFC28BF4CF037
:10022000020C43FA05F3C01851EBE37101F00045ED
:1002300007D54FF0000EDCF1000C7EEB00006EEBFA
:100240000101B1F5801F1BD3B1F5001F0CD3490884
:100250005FEA30004FEA3C0C04F101044FEA4452DB
:1002600012F5800F80F09A80BCF1004F08BF5FEA62
:10027000500C50F1000041EB045141EA050130BD42
:100280005FEA4C0C404141EB0101013C28BFB1F554
:10029000801FE9D291F0000F04BF01460020B1FA9F
:1002A00081F308BF2033A3F10B03B3F120020CDA72
:1002B0000C3208DD02F1140CC2F10C0201FA0CF050
:1002C00021FA02F10CE002F11402D8BFC2F1200CB5
:1002D00001FA02F120FA0CFCDCBF41EA0C0190406B
:1002E000E41AA2BF01EB0451294330BD6FEA0404B4
:1002F0001F3C1CDA0C340EDC04F11404C4F120029F
:1003000020FA04F001FA02F340EA030021FA04F3B0
:1003100045EA030130BDC4F10C04C4F1200220FA07
:1003200002F001FA04F340EA0300294630BD21FA45
:1003300004F0294630BD94F0000F83F4801306BF0B
:1003400081F480110134013D4EE77FEA645C18BFFF
:100350007FEA655C29D094EA050F08BF90EA020F96
:1003600005D054EA000C04BF1946104630BD91EA8E
:10037000030F1EBF0021002030BD5FEA545C05D191
:100380004000494128BF41F0004130BD14F58004D0
:100390003CBF01F5801130BD01F0004545F0FE4144
:1003A00041F470014FF0000030BD7FEA645C1ABF79
:1003B000194610467FEA655C1CBF0B46024650EAB0
:1003C000013406BF52EA033591EA030F41F40021DC
:1003D00030BD00BF90F0000F04BF0021704730B562
:1003E0004FF4806404F132044FF000054FF0000137
:1003F00050E700BF90F0000F04BF0021704730B5F8
:100400004FF4806404F1320410F0004548BF4042CC
:100410004FF000013EE700BF42004FEAE2014FEA21
:1004200031014FEA02701FBF12F07F4393F07F4FFC
:1004300081F06051704732F07F4208BF704793F0FF
:100440007F4F04BF41F40021704730B54FF4607412
:1004500001F0004521F000411CE700BF50EA010215
:1004600008BF704730B54FF000050AE050EA0102BE
:1004700008BF704730B511F0004502D5404261EB2E
:1004800041014FF4806404F132045FEA915C3FF46F
:10049000D8AE4FF003025FEADC0C18BF03325FEA0C
:1004A000DC0C18BF033202EBDC02C2F1200300FABD
:1004B00003FC20FA02F001FA03FE40EA0E0021FAE2
:1004C00002F11444BDE600BF70B54FF0FF0C4CF4D0
:1004D000E06C1CEA11541DBF1CEA135594EA0C0F82
:1004E00095EA0C0F00F0DEF82C4481EA030621EABD
:1004F0004C5123EA4C5350EA013518BF52EA0335F8
:1005000041F4801143F4801338D0A0FB02CE4FF0A9
:100510000005E1FB02E506F00042E0FB03E54FF0D9
:100520000006E1FB03569CF0000F18BF4EF0010ED1
:10053000A4F1FF04B6F5007F64F5407404D25FEACD
:100540004E0E6D4146EB060642EAC62141EA555180
:100550004FEAC52040EA5E504FEACE2EB4F1FD0CC2
:1005600088BFBCF5E06F1ED8BEF1004F08BF5FEA40
:10057000500E50F1000041EB045170BD06F00046F2
:1005800046EA010140EA020081EA0301B4EB5C049F
:10059000C2BFD4EB0C0541EA045170BD41F4801197
:1005A0004FF0000E013C00F3AB8014F1360FDEBFBC
:1005B000002001F0004170BDC4F10004203C35DA98
:1005C0000C341BDC04F11404C4F1200500FA05F31B
:1005D00020FA04F001FA05F240EA020001F00042BC
:1005E00021F0004110EBD37021FA04F642EB060132
:1005F0005EEA430E08BF20EAD37070BDC4F10C045C
:10060000C4F1200500FA04F320FA05F001FA04F21F
:1006100040EA020001F0004110EBD37041F100010B
:100620005EEA430E08BF20EAD37070BDC4F1200516
:1006300000FA05F24EEA020E20FA04F301FA05F27E
:1006400043EA020321FA04F001F0004121FA04F226
:1006500020EA020000EBD3705EEA430E08BF20EAF6
:10066000D37070BD94F0000F0FD101F00046400030
:1006700041EB010111F4801F08BF013CF7D041EAB2
:10068000060195F0000F18BF704703F000465200B6
:1006900043EB030313F4801F08BF013DF7D043EA87
:1006A0000603704794EA0C0F0CEA135518BF95EA3D
:1006B0000C0F0CD050EA410618BF52EA4306D1D1C4
:1006C00081EA030101F000414FF0000070BD50EAE3
:1006D000410606BF1046194652EA430619D094EA6D
:1006E0000C0F02D150EA013613D195EA0C0F05D157
:1006F00052EA03361CBF104619460AD181EA0301AB
:1007000001F0004141F0FE4141F470014FF0000062
:1007100070BD41F0FE4141F4780170BD70B54FF0FD
:10072000FF0C4CF4E06C1CEA11541DBF1CEA13557D
:1007300094EA0C0F95EA0C0F00F0A7F8A4EB05045F
:1007400081EA030E52EA03354FEA013100F0888056
:100750004FEA03334FF0805545EA131343EA12631F
:100760004FEA022245EA111545EA10654FEA0026D4
:100770000EF000419D4208BF964244F1FD0404F58D
:10078000407402D25B084FEA3202B61A65EB0305E9
:100790005B084FEA32024FF480104FF4002CB6EBA6
:1007A000020E75EB030E22BFB61A754640EA0C0026
:1007B0005B084FEA3202B6EB020E75EB030E22BF66
:1007C000B61A754640EA5C005B084FEA3202B6EBA7
:1007D000020E75EB030E22BFB61A754640EA9C0066
:1007E0005B084FEA3202B6EB020E75EB030E22BF36
:1007F000B61A754640EADC0055EA060E18D04FEAF4
:10080000051545EA16754FEA06164FEAC30343EA93
:1008100052734FEAC2025FEA1C1CC0D111F4801F60
:100820000BD141EA00014FF000004FF0004CB6E759
:1008300011F4801F04BF01430020B4F1FD0C88BFF8
:10084000BCF5E06F3FF6AFAEB5EB030C04BFB6EB03
:10085000020C5FEA500C50F1000041EB045170BDF6
:100860000EF0004E4EEA113114EB5C04C2BFD4EB23
:100870000C0541EA045170BD41F480114FF0000EA7
:10088000013C90E645EA060E8DE60CEA135594EA23
:100890000C0F08BF95EA0C0F3FF43BAF94EA0C0F26
:1008A0000AD150EA01347FF434AF95EA0C0F7FF49B
:1008B00025AF104619462CE795EA0C0F06D152EAEF
:1008C00003353FF4FDAE1046194622E750EA4106D3
:1008D00018BF52EA43067FF4C5AE50EA41047FF4E4
:1008E0000DAF52EA43057FF4EBAE12E74FF0FF3C49
:1008F00006E000BF4FF0010C02E000BF4FF0010C1A
:100900004DF804CD4FEA410C7FEA6C5C4FEA430C92
:1009100018BF7FEA6C5C1BD001B050EA410C0CBFE1
:1009200052EA430C91EA030F02BF90EA020F002043
:10093000704710F1000F91EA030F58BF994208BFAA
:1009400090422CBFD8176FEAE37040F00100704767
:100950004FEA410C7FEA6C5C02D150EA013C07D1BE
:100960004FEA430C7FEA6C5CD6D152EA033CD3D009
:100970005DF8040B704700BF8446104662468C4603
:100980001946634600E000BF01B5FFF7B7FF002836
:1009900048BF10F1000F01BD4DF808EDFFF7F4FF5F
:1009A0000CBF012000205DF808FB00BF4DF808EDEA
:1009B000FFF7EAFF34BF012000205DF808FB00BF0D
:1009C0004DF808EDFFF7E0FF94BF012000205DF82F
:1009D00008FB00BF4DF808EDFFF7CEFF94BF0120E4
:1009E00000205DF808FB00BF4DF808EDFFF7C4FFDD
:1009F00034BF012000205DF808FB00BF84B0B0B414
:100A000000AF07F10C0484E80F00164B1B889BB263
:100A10001946154A0B465B000B44DB0013441D4688
:100A200007F10C040FCC0FC594E8030085E8030020
:100A30000C4B1B889BB201335A4203F01F0302F098
:100A40001F0258BF53429AB2064B1A80074B1B88AD
:100A50009BB201339AB2054B1A8000BFBD46B0BCB1
:100A600004B07047520300205000002054030020BF
:100A7000B0B489B000AF78601B4B1B889BB219469D
:100A80001A4A0B465B000B44DB00134407F10804D1
:100A90001D460FCD0FC495E8030084E80300124BF8
:100AA0001B889BB201335A4203F01F0302F01F025E
:100AB00058BF53429AB20C4B1A800D4B1B889BB205
:100AC000013B9AB20A4B1A807B681D4607F1080465
:100AD0000FCC0FC594E8030085E80300786824373D
:100AE000BD46B0BC704700BF50030020500000203E
:100AF00054030020B0B598B002AF78600023009393
:100B0000002300228749884800F0ACF985498648CF
:100B100000F026FB834BB3F90C301846FFF76AFC54
:100B200004460D467F4B9B681846FFF775FC02464E
:100B30000B4620462946FFF7C7FC02460B46C7E98D
:100B40000E23784BB3F90E301846FFF753FC0446DA
:100B50000D46744B9B681846FFF75EFC02460B4639
:100B600020462946FFF7B0FC02460B46C7E9102392
:100B70006C4BB3F910301846FFF73CFC04460D46A9
:100B8000684B9B681846FFF747FC02460B46204619
:100B90002946FFF799FC02460B46C7E91223634B2F
:100BA0001B889BB2092B3DD80023A7F8563034E0B0
:100BB0006A4607F1480393E8030082E8030007F15F
:100BC00038030FCBFFF71AFF594BD3E90001D7E9E0
:100BD0000E23FFF7C3FA02460B465549C1E900232D
:100BE000534BD3E90201D7E91023FFF7B7FA0246C6
:100BF0000B464F49C1E902234D4BD3E90401D7E924
:100C00001223FFF7ABFA02460B464949C1E9042318
:100C1000B7F856300133A7F85630B7F85630092BDD
:100C2000C6D94CE007F108031846FFF721FF404BF7
:100C3000D3E90045D7E90E01D7E90223FFF78CFA83
:100C400002460B4620462946FFF788FA02460B4625
:100C50003749C1E90023364BD3E90245D7E91001F2
:100C6000D7E90423FFF778FA02460B4620462946C7
:100C7000FFF774FA02460B462D49C1E902232C4BBB
:100C8000D3E90445D7E91201D7E90623FFF764FA4F
:100C900002460B4620462946FFF760FA02460B46FD
:100CA0002349C1E904236A4607F1480393E8030096
:100CB00082E8030007F138030FCBFFF79FFE1C4BC0
:100CC000D3E900014FF000021A4BFFF727FD02465F
:100CD0000B46C7E90823164BD3E902014FF0000287
:100CE000144BFFF71BFD02460B46C7E90A23104BC6
:100CF000D3E904014FF000020E4BFFF70FFD02464F
:100D00000B46C7E90C237B681D4607F120040FCC76
:100D10000FC594E8030085E8030078685837BD469E
:100D2000B0BD00BF34000020D005002054030020D7
:100D300058030020000024402DE9B04F90B000AFD0
:100D400007F120031846FFF7D5FE002387F83F3050
:100D500075E007F108031846FFF7CCFED7E9080154
:100D6000D7E90223FFF7F8F902460B46904623F035
:100D7000004901231C4638A3D3E9002340464946D5
:100D8000FFF71EFE0346002B01D100231C46E3B2F1
:100D900083F00103DBB2002B3ED1D7E90A01D7E98A
:100DA0000423FFF7D9F902460B46924623F0004B85
:100DB00001231C4628A3D3E9002350465946FFF7D8
:100DC000FFFD0346002B01D100231C46E3B283F054
:100DD0000103DBB2002B1FD1D7E90C01D7E90623B1
:100DE000FFF7BAF902460B463A6023F000437B60F6
:100DF00001231C4618A3D3E90023D7E90001FFF71C
:100E0000DFFD0346002B01D100231C46E3B283F033
:100E10000103DBB2002B03D0114B00221A7015E046
:100E200007F1200407F108050FCD0FC495E8030072
:100E300084E8030097F83F30013387F83F3097F894
:100E40003F30042B85D9064B01221A704037BD462E
:100E5000BDE8B08FAFF30080B81E85EB51B8AE3F50
:100E60000000002080B58AB002AFF860B96011467A
:100E70001A460B46FB711346BB717523BB76FB68A4
:100E8000FB61FB7963F02F03DAB2BB681A70BB68B1
:100E90001B78FB76FB7E99B205230222F86901F0EC
:100EA000CDF90346002B01D001234CE0FB7E99B223
:100EB00007F11A024FF47A7300930123F86900F0E6
:100EC0008BFE0346002B01D001233CE0FB7E99B250
:100ED00007F119024FF47A7300930123F86900F0C7
:100EE00079FF0346002B03D001232CE003232AE0E3
:100EF00000BF7B7E682BF9D16B233B7500237B758C
:100F0000FB7E99B207F114024FF47A730093022327
:100F1000F86900F061FE0346002B01D0012312E0C6
:100F20000722B968F86800F012F8BB791A46B96868
:100F3000F86800F031F897F828301A46B968F86870
:100F400000F09AF8002318462037BD4680BD80B5D2
:100F500088B002AFF860B9601346FB71FB687B6133
:100F6000BB681B78FB7419233B74FB797B7400BF4F
:100F7000FB7C99B207F110024FF47A7300930223BD
:100F8000786900F029FE0346002BF1D100231846B2
:100F90001837BD4680BD000080B588B002AFF8604C
:100FA000B9601346FB71FB687B61BB681B78FB74FF
:100FB0001C237B7400BFFB7C99B207F111024FF434
:100FC0007A7300930123786900F006FE0346002B34
:100FD000F1D100BFFB7C99B207F112024FF47A7392
:100FE00000930123786900F0F5FE0346002BF1D150
:100FF000BB7C5BB223F018035AB2FB79DB005BB217
:1010000013435BB2DBB2BB7400BFFB7C99B207F148
:1010100012024FF47A7300930123786900F0DCFD2B
:101020000346002BF1D1FB79032B1FD801A252F804
:1010300023F000BF451000084F10000859100008A9
:1010400063100008BB684FF062529A600FE0BB6803
:101050004FF064529A600AE0BB684FF066529A60A3
:1010600005E0BB684FF068529A6000E000BF0023C3
:1010700018461837BD4680BD80B588B002AFF8600D
:10108000B9601346FB71FB687B61BB681B78FB741E
:101090001B237B7400BFFB7C99B207F111024FF454
:1010A0007A7300930123786900F096FD0346002BC4
:1010B000F1D100BFFB7C99B207F112024FF47A73B1
:1010C00000930123786900F085FE0346002BF1D1DF
:1010D000BB7C5BB223F018035AB2FB79DB005BB236
:1010E00013435BB2DBB2BB7400BFFB7C99B207F168
:1010F00012024FF47A7300930123786900F06CFDBB
:101100000346002BF1D1FB79032B1BD801A252F827
:1011100023F000BF251100082D110008351100082B
:101120003D110008BB680A4A5A600CE0BB68094AD6
:101130005A6008E0BB68084A5A6004E0BB68074A86
:101140005A6000E000BF002318461837BD4680BD36
:101150002D23FA3B2D237A3C90C1F93C90C1793D77
:1011600080B588B002AF786039603B23FB727B6842
:101170007B613B681B78FB7400BFFB7C99B207F175
:101180000B024FF47A7300930123786900F024FD79
:101190000346002BF1D100BFFB7C99B207F10C0292
:1011A0004FF47A7300930623786900F013FE034628
:1011B000002BF1D13B7B1B021AB27B7B1BB213438A
:1011C0001AB23B689A81BB7B1B021AB2FB7B1BB233
:1011D00013431AB23B68DA813B7C1B021AB27B7C58
:1011E0001BB213431AB23B681A8200231846183701
:1011F000BD4680BD80B500AF084B1B68074A43F071
:1012000010031360032000F047F9002000F008F8F5
:1012100003F012FF0023184680BD00BF00200240EB
:1012200080B582B000AF7860124B1A68124B1B7801
:1012300019464FF47A73B3FBF1F3B2FBF3F318469C
:1012400000F05FF90346002B01D001230EE07B681C
:101250000F2B0AD8002279684FF0FF3000F027F9F1
:10126000064A7B681360002300E001231846083714
:10127000BD4680BD140000200800002004000020AE
:1012800080B400AF054B1B781A46054B1B6813440E
:10129000034A136000BFBD4680BC704708000020B1
:1012A0007003002080B400AF024B1B681846BD4697
:1012B00080BC70477003002080B584B000AF7860B8
:1012C000FFF7F0FFB8607B68FB60FB68B3F1FF3F9E
:1012D00005D00A4B1B781A46FB681344FB6000BF1D
:1012E000FFF7E0FF0246BB68D31AFA689A42F7D8C4
:1012F00000BF00BF1037BD4680BD00BF0800002002
:1013000080B485B000AF78607B6803F00703FB60B2
:101310000C4BDB68BB60BA684FF6FF031340BB6041
:10132000FB681A02BB68134343F0BF6343F4003306
:10133000BB60044ABB68D36000BF1437BD4680BCA5
:10134000704700BF00ED00E080B400AF044BDB68E5
:101350001B0A03F007031846BD4680BC704700BF58
:1013600000ED00E080B483B000AF0346FB7197F955
:101370000730002B0BDBFB7903F01F02064997F9BE
:1013800007305B09012000FA02F241F8232000BF78
:101390000C37BD4680BC704700E100E080B483B0EC
:1013A00000AF03463960FB7197F90730002B0ADB69
:1013B0003B68DAB20C4997F907301201D2B20B44FC
:1013C00083F800230AE03B68DAB20849FB7903F0AE
:1013D0000F03043B1201D2B20B441A7600BF0C3744
:1013E000BD4680BC704700BF00E100E000ED00E0BA
:1013F00080B489B000AFF860B9607A60FB6803F030
:101400000703FB61FB69C3F10703042B28BF042317
:10141000BB61FB690433062B02D9FB69033B00E087
:1014200000237B614FF0FF32BB6902FA03F3DA431A
:10143000BB681A407B699A404FF0FF317B6901FA23
:1014400003F3D9437B680B40134318462437BD464A
:1014500080BC704780B582B000AF78607B68013B8C
:10146000B3F1807F01D301230FE00A4A7B68013B7F
:1014700053600F214FF0FF30FFF790FF054B002224
:101480009A60044B07221A60002318460837BD46AD
:1014900080BD00BF10E000E080B582B000AF786092
:1014A0007868FFF72DFF00BF0837BD4680BD80B5C7
:1014B00086B000AF0346B9607A60FB7300237B619E
:1014C000FFF742FF78617A68B9687869FFF790FFA3
:1014D000024697F90F3011461846FFF75FFF00BF2D
:1014E0001837BD4680BD80B582B000AF0346FB71A2
:1014F00097F907301846FFF735FF00BF0837BD469C
:1015000080BD80B582B000AF78607868FFF7A2FF39
:10151000034618460837BD4680BD000080B584B03C
:1015200000AF78600023FB737B6893F82130022BB7
:1015300005D07B6804229A630123FB7351E07B682A
:101540001B681A687B681B6822F00E021A607B68B1
:101550001B681A687B681B6822F001021A607B68AE
:101560001B68224A934229D07B681B68204A934219
:1015700022D07B681B681F4A93421AD07B681B6885
:101580001D4A934212D07B681B681C4A93420AD0C2
:101590007B681B681A4A934202D14FF480130EE015
:1015A0004FF080730BE04FF4803308E04FF480532A
:1015B00005E04FF4807302E0102300E00123114A9C
:1015C00053607B68012283F821207B68002283F826
:1015D00020207B685B6B002B03D07B685B6B78689B
:1015E0009847FB7B18461037BD4680BD0800024077
:1015F0001C000240300002404400024058000240FB
:101600006C0002400000024080B48BB000AF7860F4
:10161000396000237B6200233B6269E101227B6A1F
:1016200002FA03F3FB613B681B68FA691340BB6174
:10163000BA69FB699A4240F058813B685B689A4AF4
:1016400093425ED0984A934275D8984A934258D0B4
:10165000964A93426FD8964A934252D0944A934204
:1016600069D8944A93424CD0924A934263D8924AA2
:10167000934246D0904A93425DD8122B2AD8122B1F
:1016800059D801A252F823F003170008DD1600080C
:10169000EF16000831170008371700083717000841
:1016A00037170008371700083717000837170008E2
:1016B00037170008371700083717000837170008D2
:1016C000371700083717000837170008E516000815
:1016D000F9160008794A934213D02CE03B68DB6886
:1016E0003B6229E03B68DB6804333B6224E03B68F3
:1016F000DB6808333B621FE03B68DB680C333B620E
:101700001AE03B689B68002B02D104233B6213E084
:101710003B689B68012B05D108233B627B68FA6913
:101720001A6109E008233B627B68FA695A6103E0A9
:1017300000233B6200E000BFBB69FF2B01D87B6840
:1017400001E07B6804337B61BB69FF2B02D87B6AB5
:101750009B0002E07B6A083B9B003B617B691A6847
:101760000F213B6901FA03F3DB431A40396A3B69F5
:1017700001FA03F31A437B691A603B685B6803F064
:101780008053002B00F0B1804D4B9B694C4A43F0D5
:10179000010393614A4B9B6903F00103BB60BB6883
:1017A000484A7B6A9B08023352F82330FB607B6A0D
:1017B00003F003039B000F2202FA03F3DB43FA68F2
:1017C0001340FB607B68404A934213D07B683F4ADA
:1017D00093420DD07B683E4A934207D07B683D4AD6
:1017E000934201D1032306E0042304E0022302E034
:1017F000012300E000237A6A02F003029200934082
:10180000FA681343FB602F497B6A9B080233FA682E
:1018100041F823203B685B6803F48033002B06D03B
:101820002D4B1A682C49BB6913430B6006E02A4B09
:101830001A68BB69DB43284913400B603B685B684F
:1018400003F40033002B06D0234B5A682249BB69AE
:1018500013434B6006E0204B5A68BB69DB431E49CB
:1018600013404B603B685B6803F48013002B06D089
:10187000194B9A681849BB6913438B6006E0164BF5
:101880009A68BB69DB43144913408B603B685B6813
:1018900003F40013002B21D00F4BDA680E49BB690B
:1018A0001343CB6021E000BF000032100000311074
:1018B0000000221000002110000012100000111082
:1018C000001002400000014000080140000C0140EF
:1018D0000010014000140140000401400B4BDA6885
:1018E000BB69DB4309491340CB607B6A01337B62F0
:1018F0003B681A687B6A22FA03F3002B7FF48EAEF2
:1019000000BF00BF2C37BD4680BC704700040140BB
:1019100080B485B000AF78600B467B807B689A68A6
:101920007B881340002B02D00123FB7301E00023CE
:10193000FB73FB7B18461437BD4680BC704780B4F0
:1019400083B000AF78600B467B8013467B707B785A
:10195000002B03D07A887B681A6103E07B881A0425
:101960007B681A6100BF0C37BD4680BC7047000021
:1019700080B584B000AF78607B68002B01D1012373
:101980001BE17B6893F83D30DBB2002B06D17B680E
:10199000002283F83C20786803F0F6F97B68242263
:1019A00083F83D207B681B681A687B681B6822F0FF
:1019B00001021A6001F040FCF8607B685B68814AB4
:1019C000934207D8FB68804A934294BF01230023C7
:1019D000DBB206E0FB687D4A934294BF01230023FB
:1019E000DBB2002B01D00123E7E0FB68784AA2FBC1
:1019F00003239B0CBB607B681B685B6823F03F0183
:101A00007B681B68BA680A435A607B681B681B6A5C
:101A100023F03F017B685B686A4A934202D8BB6847
:101A2000013309E0BB684FF4967202FB03F3694A85
:101A3000A2FB03239B0901337A6812680B431362EC
:101A40007B681B68DB6923F44F4222F0FF027B684E
:101A50005B685C498B4219D8FB68591E7B685B68E0
:101A60005B00B1FBF3F3591C40F6FC730B40002BF9
:101A70000AD0FB68591E7B685B685B00B1FBF3F31F
:101A80000133C3F30B0351E004234FE07B689B68F1
:101A9000002B11D1FB68581E7B6859680B465B0010
:101AA0000B44B0FBF3F30133C3F30B03002B0CBF68
:101AB00001230023DBB212E0FB68581E7B685968E3
:101AC0000B469B000B4499000B44B0FBF3F301332E
:101AD000C3F30B03002B0CBF01230023DBB2002B4D
:101AE00001D0012322E07B689B68002B0ED1FB68AC
:101AF000581E7B6859680B465B000B44B0FBF3F340
:101B00000133C3F30B0343F400430FE0FB68581E9B
:101B10007B6859680B469B000B4499000B44B0FB53
:101B2000F3F30133C3F30B0343F4404379680968CB
:101B30001343CB617B681B681B6823F0C0017B6883
:101B4000DA697B681B6A1A437B681B680A431A6060
:101B50007B681B689B6823F4034323F0FF037A68C8
:101B600011697A68D26811437A6812680B439360EE
:101B70007B681B68DB6823F0FF017B685A697B6820
:101B80009B691A437B681B680A43DA607B681B68A1
:101B90001A687B681B6842F001021A607B680022A9
:101BA0001A647B68202283F83D207B6800221A6338
:101BB0007B68002283F83E20002318461037BD467C
:101BC00080BD00BFA08601007F841E00FF083D008D
:101BD00083DE1B43D34D621080B588B002AFF8603E
:101BE0007A601A460B467B8113463B81FFF75AFB0E
:101BF0007861FB6893F83D30DBB2202B40F0E08049
:101C00007B690093192301227049F86800F064FD94
:101C10000346002B01D00223D3E0FB6893F83C304D
:101C2000012B01D10223CCE0FB68012283F83C2088
:101C3000FB681B681B6803F00103012B07D0FB68DE
:101C40001B681A68FB681B6842F001021A60FB6897
:101C50001B681A68FB681B6822F400621A60FB6844
:101C6000212283F83D20FB68102283F83E20FB6888
:101C700000221A64FB687A685A62FB683A895A85BE
:101C8000FB685B8D9AB2FB681A85FB68504ADA6282
:101C900079897B693A6AF86800F0F2FB0346002B09
:101CA00001D001238DE000233B61FB681B685B6969
:101CB0003B61FB681B689B693B613B6966E07A6935
:101CC000396AF86800F0DEFD0346002B0DD0FB6892
:101CD0001B6C042B07D1FB681B681A68FB681B6828
:101CE00042F400721A6001236BE0FB685B6A1A78A9
:101CF000FB681B681A61FB685B6A5A1CFB685A62C6
:101D0000FB685B8D9BB2013B9AB2FB685A85FB680E
:101D10001B8D013B9AB2FB681A85FB681B685B69E7
:101D200003F00403042B1BD1FB681B8D002B17D081
:101D3000FB685B6A1A78FB681B681A61FB685B6A60
:101D40005A1CFB685A62FB685B8D9BB2013B9AB2DE
:101D5000FB685A85FB681B8D013B9AB2FB681A85AC
:101D60007A69396AF86800F0CEFD0346002B0DD081
:101D7000FB681B6C042B07D1FB681B681A68FB68A7
:101D80001B6842F400721A6001231AE0FB681B8D85
:101D9000002B94D1FB681B681A68FB681B6842F42F
:101DA00000721A60FB68202283F83D20FB68002245
:101DB00083F83E20FB68002283F83C20002300E0EB
:101DC000022318461837BD4680BD00BF0200100030
:101DD0000000FFFF80B58CB002AFF8607A601A4651
:101DE0000B467B8113463B81FFF75CFA7862FB6808
:101DF00093F83D30DBB2202B40F019827B6A0093D0
:101E0000192301227F49F86800F066FC0346002B85
:101E100001D002230CE2FB6893F83C30012B01D186
:101E2000022305E2FB68012283F83C20FB681B6863
:101E30001B6803F00103012B07D0FB681B681A68BD
:101E4000FB681B6842F001021A60FB681B681A6895
:101E5000FB681B6822F400621A60FB68222283F888
:101E60003D20FB68102283F83E20FB6800221A64A4
:101E7000FB687A685A62FB683A895A85FB685B8D11
:101E80009AB2FB681A85FB685F4ADA6279897B6AD5
:101E90003A6BF86800F06AFB0346002B01D001237F
:101EA000C6E1FB681B8D002B13D100233B62FB684E
:101EB0001B685B693B62FB681B689B693B623B6A12
:101EC000FB681B681A68FB681B6842F400721A60A2
:101ED0009AE1FB681B8D012B1ED1FB681B681A68F9
:101EE000FB681B6822F480621A6072B600BF002390
:101EF000FB61FB681B685B69FB61FB681B689B6996
:101F0000FB61FB69FB681B681A68FB681B6842F48D
:101F100000721A6062B635E0FB681B8D022B1ED181
:101F2000FB681B681A68FB681B6842F400621A6051
:101F300072B600BF0023BB61FB681B685B69BB61B5
:101F4000FB681B689B69BB61BB69FB681B681A68FF
:101F5000FB681B6822F480621A6062B612E0FB68BC
:101F60001B681A68FB681B6842F480621A600023D1
:101F70007B61FB681B685B697B61FB681B689B6915
:101F80007B617B6940E1FB681B8D032B00F2F980CC
:101F9000FB681B8D012B23D17A6A396BF86800F03E
:101FA000F3FC0346002B01D0012341E1FB681B68D1
:101FB0001A69FB685B6AD2B21A70FB685B6A5A1CCA
:101FC000FB685A62FB681B8D013B9AB2FB681A855D
:101FD000FB685B8D9BB2013B9AB2FB685A8513E1AB
:101FE000FB681B8D022B52D17B6A00933B6B002256
:101FF0000649F86800F070FB0346002B08D0012367
:1020000016E100BF020010000000FFFF0400010005
:1020100072B600BFFB681B681A68FB681B6842F455
:1020200000721A60FB681B681A69FB685B6AD2B2AF
:102030001A70FB685B6A5A1CFB685A62FB681B8D4E
:10204000013B9AB2FB681A85FB685B8D9BB2013B32
:102050009AB2FB685A8562B600BFFB681B681A69B2
:10206000FB685B6AD2B21A70FB685B6A5A1CFB6839
:102070005A62FB681B8D013B9AB2FB681A85FB68AC
:102080005B8D9BB2013B9AB2FB685A85BCE07B6AD0
:1020900000933B6B00226849F86800F01DFB034683
:1020A000002B01D00123C3E0FB681B681A68FB68A2
:1020B0001B6822F480621A6072B600BFFB681B685E
:1020C0001A69FB685B6AD2B21A70FB685B6A5A1CB9
:1020D000FB685A62FB681B8D013B9AB2FB681A854C
:1020E000FB685B8D9BB2013B9AB2FB685A857B6AA9
:1020F00000933B6B00225049F86800F0EDFA03466C
:10210000002B01D0012393E0FB681B681A68FB6871
:102110001B6842F400721A60FB681B681A69FB684E
:102120005B6AD2B21A70FB685B6A5A1CFB685A621F
:10213000FB681B8D013B9AB2FB681A85FB685B8DBF
:102140009BB2013B9AB2FB685A8562B600BFFB683E
:102150001B681A69FB685B6AD2B21A70FB685B6A1B
:102160005A1CFB685A62FB681B8D013B9AB2FB68E4
:102170001A85FB685B8D9BB2013B9AB2FB685A855E
:1021800042E07A6A396BF86800F0FEFB0346002BE8
:1021900001D001234CE0FB681B681A69FB685B6A8D
:1021A000D2B21A70FB685B6A5A1CFB685A62FB6801
:1021B0001B8D013B9AB2FB681A85FB685B8D9BB255
:1021C000013B9AB2FB685A85FB681B685B6903F0A8
:1021D0000403042B18D1FB681B681A69FB685B6A4F
:1021E000D2B21A70FB685B6A5A1CFB685A62FB68C1
:1021F0001B8D013B9AB2FB681A85FB685B8D9BB215
:10220000013B9AB2FB685A85FB681B8D002B7FF45B
:10221000BAAEFB68202283F83D20FB68002283F8D9
:102220003E20FB68002283F83C20002300E00223CC
:1022300018462837BD4680BD0400010080B58AB02D
:1022400002AFF8607A603B600B467B81FFF72AF8AB
:10225000F8610123BB61FB6893F83D30DBB2202BB2
:1022600040F00581FB690093192301228249F86837
:1022700000F032FA0346002B01D00223F8E0FB689D
:1022800093F83C30012B01D10223F1E0FB680122DD
:1022900083F83C20FB681B681B6803F00103012BDB
:1022A00007D0FB681B681A68FB681B6842F00102D4
:1022B0001A60FB681B681A68FB681B6822F40062DE
:1022C0001A60FB68242283F83D20FB6800221A6410
:1022D000FB686A4ADA62FB681B681A68FB681B685D
:1022E00042F480721A60FB6900933B6800224FF051
:1022F0000111F86800F0F0F90346002B01D001232A
:10230000B6E07B89DBB21A46FB681B6802F0FE026E
:102310001A61FEF7C7FFF861FB681B685B6903F091
:102320000203022B0CBF01230023DBB2FB75FB6809
:102330001B685B6903F48063B3F5806F0CBF0123F6
:102340000023DBB2BB7525E0FEF7ACFF0246FB695C
:10235000D31A3A689A4202D33B68002B03D1FB6838
:10236000A02283F83D20FB681B685B6903F0020331
:10237000022B0CBF01230023DBB2FB75FB681B683B
:102380005B6903F48063B3F5806F0CBF0123002306
:10239000DBB2BB75FB6893F83D30DBB2A02B05D0F8
:1023A000FB7D002B02D1BB7D002BCDD0FB68202212
:1023B00083F83D20FB681B685B6903F00203022B76
:1023C00029D1FB681B681A68FB681B6842F400721D
:1023D0001A6000233B61FB681B685B693B61FB681B
:1023E0001B689B693B613B69FB69009319230122D0
:1023F0002149F86800F070F90346002B01D0012351
:1024000036E0FB68202283F83D20FB68002283F839
:102410003C2000232CE0FB681B681A68FB681B68E3
:1024200042F400721A60FB681B686FF480625A61A4
:10243000FB690093192301220F49F86800F04CF959
:102440000346002B01D0012312E0BB690133BB61BD
:10245000BA697B689A42FFF43EAFFB68202283F89A
:102460003D20FB68002283F83C20012300E002238A
:1024700018462037BD4680BD020010000000FFFF57
:1024800080B588B002AFF8607A603B600B467B8114
:10249000FB68DB6A7B617B69082B06D07B69012BBB
:1024A00003D07B6913F5803F08D1FB681B681A686D
:1024B000FB681B6842F480721A600BE0FB681B6BC0
:1024C000122B07D1FB681B681A68FB681B6842F473
:1024D00080721A603B6800937B6800224FF0011104
:1024E000F86800F0F9F80346002B01D0012335E02D
:1024F000FB681B69B3F5804F08D17B89DBB21A46B4
:10250000FB681B6802F0FE021A611BE07B89DB118D
:10251000DBB203F00603DBB263F00F03DAB2FB6851
:102520001B681A613B687A680E49F86800F02BF95D
:102530000346002B01D0012310E07B89DAB2FB684F
:102540001B681A613B687A680749F86800F01BF954
:102550000346002B01D0012300E000231846183762
:10256000BD4680BD080001000200010080B588B0B2
:1025700002AFF8607A603B600B467B81FB68DB6AE8
:102580007B61FB681B681A68FB681B6842F4806209
:102590001A607B69082B06D07B69012B03D07B690D
:1025A00013F5803F08D1FB681B681A68FB681B683D
:1025B00042F480721A600BE0FB681B6B112B07D191
:1025C000FB681B681A68FB681B6842F480721A601B
:1025D0003B6800937B6800224FF00111F86800F01F
:1025E0007BF80346002B01D001236DE0FB681B69DB
:1025F000B3F5804F08D17B89DBB243F00103DAB237
:10260000FB681B681A6153E07B89DB11DBB203F0C6
:102610000603DBB263F00F03DAB2FB681B681A61D2
:102620003B687A682A49F86800F0ADF80346002B49
:1026300001D0012348E07B89DAB2FB681B681A618C
:102640003B687A682349F86800F09DF80346002B40
:1026500001D0012338E000233B61FB681B685B6904
:102660003B61FB681B689B693B613B69FB681B68BE
:102670001A68FB681B6842F480721A603B6800931A
:102680007B6800224FF00111F86800F025F803463E
:10269000002B01D0012317E07B89DB11DBB203F0B3
:1026A0000603DBB263F00E03DAB2FB681B681A6143
:1026B0003B687A680749F86800F065F80346002B24
:1026C00001D0012300E0002318461837BD4680BD25
:1026D000080001000200010080B584B000AFF8607E
:1026E000B9603B601346FB7125E03B68B3F1FF3FE7
:1026F00021D0FEF7D7FD0246BB69D31A3A689A4249
:1027000002D33B68002B16D1FB6800221A63FB68DA
:10271000202283F83D20FB68002283F83E20FB68DE
:102720001B6C43F02002FB681A64FB68002283F8EC
:102730003C20012323E0BB681B0CDBB2012B0DD135
:10274000FB681B685B69DA43BB6813409BB2002BD4
:102750000CBF01230023DBB21A460CE0FB681B68A8
:102760009B69DA43BB6813409BB2002B0CBF01236B
:102770000023DBB21A46FB799A42B6D000231846F2
:102780001037BD4680BD80B584B000AFF860B96039
:102790007A603B6051E0FB681B685B6903F480630F
:1027A000B3F5806F23D1FB681B681A68FB681B6850
:1027B00042F400721A60FB681B686FF480625A6111
:1027C000FB6800221A63FB68202283F83D20FB6827
:1027D000002283F83E20FB681B6C43F00402FB6878
:1027E0001A64FB68002283F83C20012346E07B68E2
:1027F000B3F1FF3F21D0FEF755FD02463B68D31AE7
:102800007A689A4202D37B68002B16D1FB680022BB
:102810001A63FB68202283F83D20FB68002283F8BE
:102820003E20FB681B6C43F02002FB681A64FB68C7
:10283000002283F83C20012320E0BB681B0CDBB2A4
:10284000012B0CD1FB681B685B69DA43BB68134042
:102850009BB2002B14BF01230023DBB20BE0FB680B
:102860001B689B69DA43BB6813409BB2002B14BF03
:1028700001230023DBB2002B8DD100231846103733
:10288000BD4680BD80B584B000AFF860B9607A60A5
:102890002DE0F86800F0CEF80346002B01D00123AC
:1028A0002DE0BB68B3F1FF3F21D0FEF7FBFC0246F1
:1028B0007B68D31ABA689A4202D3BB68002B16D140
:1028C000FB6800221A63FB68202283F83D20FB6826
:1028D000002283F83E20FB681B6C43F02002FB685B
:1028E0001A64FB68002283F83C20012307E0FB68A0
:1028F0001B685B6903F08003802BCAD10023184654
:102900001037BD4680BD80B584B000AFF860B960B7
:102910007A602DE0F86800F08DF80346002B01D0B6
:1029200001232DE0BB68B3F1FF3F21D0FEF7BAFCD5
:1029300002467B68D31ABA689A4202D3BB68002B5E
:1029400016D1FB6800221A63FB68202283F83D2021
:10295000FB68002283F83E20FB681B6C43F02002DA
:10296000FB681A64FB68002283F83C20012307E01F
:10297000FB681B685B6903F00403042BCAD10023C6
:1029800018461037BD4680BD80B584B000AFF860F2
:10299000B9607A6042E0FB681B685B6903F0100372
:1029A000102B19D1FB681B686FF010025A61FB688D
:1029B00000221A63FB68202283F83D20FB68002276
:1029C00083F83E20FB681A6CFB681A64FB680022DF
:1029D00083F83C20012329E0FEF764FC02467B6873
:1029E000D31ABA689A4202D3BB68002B16D1FB688F
:1029F00000221A63FB68202283F83D20FB68002236
:102A000083F83E20FB681B6C43F02002FB681A64CD
:102A1000FB68002283F83C20012307E0FB681B6869
:102A20005B6903F04003402BB5D1002318461037F3
:102A3000BD4680BD80B483B000AF78607B681B6802
:102A40005B6903F48063B3F5806F1BD17B681B68FF
:102A50006FF480625A617B6800221A637B682022CF
:102A600083F83D207B68002283F83E207B681B6C46
:102A700043F004027B681A647B68002283F83C20E0
:102A8000012300E0002318460C37BD4680BC704788
:102A900080B586B000AF78607B68002B01D1012340
:102AA0006CE27B681B6803F00103002B00F0878059
:102AB000924B5B6803F00C03042B0CD08F4B5B68CC
:102AC00003F00C03082B12D18C4B5B6803F48033AA
:102AD000B3F5803F0BD1894B1B6803F40033002B07
:102AE0006CD07B685B68002B68D1012346E27B6871
:102AF0005B68B3F5803F06D1804B1B687F4A43F487
:102B0000803313602EE07B685B68002B0CD17B4B1D
:102B10001B687A4A23F480331360784B1B68774A2A
:102B200023F4802313601DE07B685B68B3F5A02F5E
:102B30000CD1724B1B68714A43F4802313606F4BB6
:102B40001B686E4A43F4803313600BE06B4B1B68C9
:102B50006A4A23F480331360684B1B68674A23F486
:102B6000802313607B685B68002B13D0FEF79AFB11
:102B7000386108E0FEF796FB02463B69D31A642BE6
:102B800001D90323FAE15D4B1B6803F40033002BEA
:102B9000F0D014E0FEF786FB386108E0FEF782FB18
:102BA00002463B69D31A642B01D90323E6E1534B58
:102BB0001B6803F40033002BF0D100E000BF7B68FA
:102BC0001B6803F00203002B63D04C4B5B6803F0DF
:102BD0000C03002B0BD0494B5B6803F00C03082B54
:102BE0001CD1464B5B6803F48033002B16D1434B5A
:102BF0001B6803F00203002B05D07B681B69012BC7
:102C000001D00123BAE13D4B1B6823F0F8027B6839
:102C10005B69DB00394913430B603AE07B681B6951
:102C2000002B20D0364B01221A60FEF73BFB3861A7
:102C300008E0FEF737FB02463B69D31A022B01D9A5
:102C400003239BE12D4B1B6803F00203002BF0D004
:102C50002A4B1B6823F0F8027B685B69DB0027497D
:102C600013430B6015E0264B00221A60FEF71AFB97
:102C7000386108E0FEF716FB02463B69D31A022BC7
:102C800001D903237AE11D4B1B6803F00203002BDB
:102C9000F0D17B681B6803F00803002B3AD07B68F7
:102CA0009B69002B19D0174B01221A60FEF7FAFA24
:102CB000386108E0FEF7F6FA02463B69D31A022BA8
:102CC00001D903235AE10D4B5B6A03F00203002B89
:102CD000F0D0012000F0D8FA1CE00A4B00221A6064
:102CE000FEF7E0FA38610FE0FEF7DCFA02463B69D6
:102CF000D31A022B08D9032340E100BF0010024081
:102D000000004242800442429E4B5B6A03F0020391
:102D1000002BE9D17B681B6803F00403002B00F053
:102D2000A6800023FB75974BDB6903F08053002BD3
:102D30000DD1944BDB69934A43F08053D361914B9F
:102D4000DB6903F08053BB60BB680123FB758E4BCE
:102D50001B6803F48073002B18D18B4B1B688A4AC5
:102D600043F480731360FEF79DFA386108E0FEF7C4
:102D700099FA02463B69D31A642B01D90323FDE07B
:102D8000814B1B6803F48073002BF0D07B68DB68F9
:102D9000012B06D17B4B1B6A7A4A43F00103136275
:102DA0002DE07B68DB68002B0CD1764B1B6A754AE3
:102DB00023F001031362734B1B6A724A23F004036E
:102DC00013621CE07B68DB68052B0CD16D4B1B6A22
:102DD0006C4A43F0040313626A4B1B6A694A43F06E
:102DE000010313620BE0674B1B6A664A23F0010381
:102DF0001362644B1B6A634A23F0040313627B680B
:102E0000DB68002B15D0FEF74DFA38610AE0FEF7BB
:102E100049FA02463B69D31A41F28832934201D9FA
:102E20000323ABE0574B1B6A03F00203002BEED0E9
:102E300014E0FEF737FA38610AE0FEF733FA02468B
:102E40003B69D31A41F28832934201D9032395E0BA
:102E50004C4B1B6A03F00203002BEED1FB7D012BD0
:102E600005D1484BDB69474A23F08053D3617B6827
:102E7000DB69002B00F08180424B5B6803F00C03A0
:102E8000082B61D07B68DB69022B46D13F4B0022C7
:102E90001A60FEF707FA386108E0FEF703FA024607
:102EA0003B69D31A022B01D9032367E0354B1B681A
:102EB00003F00073002BF0D17B681B6AB3F5803FF1
:102EC00008D1304B5B6823F400327B689B682D4946
:102ED00013434B602B4B5B6823F474127B68196AB5
:102EE0007B685B6A0B43274913434B60274B0122E6
:102EF0001A60FEF7D7F9386108E0FEF7D3F9024609
:102F00003B69D31A022B01D9032337E01D4B1B6801
:102F100003F00073002BF0D02FE01C4B00221A604E
:102F2000FEF7C0F9386108E0FEF7BCF902463B69DC
:102F3000D31A022B01D9032320E0124B1B6803F0A4
:102F40000073002BF0D118E07B68DB69012B01D105
:102F5000012313E00B4B5B68FB60FB6803F48032DA
:102F60007B681B6A9A4206D1FB6803F470127B6887
:102F70005B6A9A4201D0012300E00023184618370B
:102F8000BD4680BD0010024000700040600042421B
:102F900080B584B000AF786039607B68002B01D1C8
:102FA0000123D0E06A4B1B6803F007033A689A429A
:102FB00010D9674B1B6823F0070265493B68134330
:102FC0000B60634B1B6803F007033A689A4201D019
:102FD0000123B8E07B681B6803F00203002B20D0BC
:102FE0007B681B6803F00403002B05D0594B5B681A
:102FF000584A43F4E06353607B681B6803F008039E
:10300000002B05D0534B5B68524A43F46053536026
:10301000504B5B6823F0F0027B689B684D4913437B
:103020004B607B681B6803F00103002B40D07B687A
:103030005B68012B07D1474B1B6803F40033002B5F
:1030400015D101237FE07B685B68022B07D1414BE0
:103050001B6803F00073002B09D1012373E03D4B83
:103060001B6803F00203002B01D101236BE0394BF5
:103070005B6823F003027B685B68364913434B604F
:10308000FEF710F9F8600AE0FEF70CF90246FB685B
:10309000D31A41F28832934201D9032353E02D4BD6
:1030A0005B6803F00C027B685B689B009A42EBD183
:1030B000274B1B6803F007033A689A4210D2244B4F
:1030C0001B6823F0070222493B6813430B60204B27
:1030D0001B6803F007033A689A4201D0012332E0EB
:1030E0007B681B6803F00403002B08D0194B5B6856
:1030F00023F4E0627B68DB68164913434B607B680E
:103100001B6803F00803002B09D0124B5B6823F403
:1031100060527B681B69DB000E4913434B6000F073
:1031200021F802460B4B5B681B0903F00F030A49A9
:10313000CB5C22FA03F3094A1360094B1B6818465B
:10314000FEF76EF8002318461037BD4680BD00BF5D
:1031500000200240001002405854000814000020D3
:103160000400002090B48AB000AF2A4B3C1D0FCB66
:1031700084E80F0040F201233B800023FB61002321
:10318000BB6100237B6200237B6100233B62224BF7
:103190005B68FB61FB6903F00C03042B02D0082B76
:1031A00003D02DE01D4B3B622DE0FB699B0C03F02F
:1031B0000F0307F12802134413F8243C7B61FB69D9
:1031C00003F48033002B13D0134B5B685B0C03F0CC
:1031D000010307F12802134413F8283CBB617B6903
:1031E0000E4A02FB03F2BB69B2FBF3F37B6204E01D
:1031F0007B690B4A02FB03F37B627B6A3B6202E062
:10320000064B3B6200BF3B6A18462837BD4690BC60
:10321000704700BF485400080010024000127A00B6
:1032200000093D0080B400AF024B1B681846BD4644
:1032300080BC70471400002080B500AFFFF7F2FF9C
:103240000246054B5B681B0A03F007030349CB5C8E
:1032500022FA03F3184680BD0010024068540008AB
:1032600080B500AFFFF7DEFF0246054B5B68DB0A67
:1032700003F007030349CB5C22FA03F3184680BD31
:10328000001002406854000880B485B000AF786038
:103290000A4B1B680A4AA2FB03235B0A7A6802FBFB
:1032A00003F3FB6000BFFB685A1EFA60002BF9D1E4
:1032B00000BF00BF1437BD4680BC7047140000201B
:1032C000D34D621080B582B000AF78607B68002B70
:1032D00001D101231DE07B6893F83D30DBB2002B68
:1032E00006D17B68002283F83C20786801F09AFFC1
:1032F0007B68022283F83D207B681A687B68043370
:103300001946104600F06AFA7B68012283F83D20D6
:10331000002318460837BD4680BD80B485B000AF95
:1033200078607B68022283F83D207B681B689B687D
:1033300003F00703FB60FB68062B07D07B681B6864
:103340001A687B681B6842F001021A607B680122E0
:1033500083F83D20002318461437BD4680BC7047D3
:1033600080B483B000AF78607B68022283F83D2090
:103370007B681B681A6A41F211131340002B0FD1AE
:103380007B681B681A6A40F244431340002B07D144
:103390007B681B681A687B681B6822F001021A6050
:1033A0007B68012283F83D20002318460C37BD4678
:1033B00080BC704780B485B000AF78607B681B68C4
:1033C000DA687B681B6842F00102DA607B681B6880
:1033D0009B6803F00703FB60FB68062B07D07B6844
:1033E0001B681A687B681B6842F001021A600023A0
:1033F00018461437BD4680BC704780B582B000AF18
:1034000078607B681B681B6903F00203022B22D1E2
:103410007B681B68DB6803F00203022B1BD17B680F
:103420001B686FF002021A617B6801221A777B68C1
:103430001B689B6903F00303002B03D0786800F03E
:10344000B1F905E0786800F0A4F9786800F0B3F904
:103450007B6800221A777B681B681B6903F00403F2
:10346000042B22D17B681B68DB6803F00403042B68
:103470001BD17B681B686FF004021A617B68022213
:103480001A777B681B689B6903F44073002B03D099
:10349000786800F087F905E0786800F07AF97868D4
:1034A00000F089F97B6800221A777B681B681B692A
:1034B00003F00803082B22D17B681B68DB6803F04C
:1034C0000803082B1BD17B681B686FF008021A6188
:1034D0007B6804221A777B681B68DB6903F00303AF
:1034E000002B03D0786800F05DF905E0786800F003
:1034F00050F9786800F05FF97B6800221A777B68E2
:103500001B681B6903F01003102B22D17B681B681A
:10351000DB6803F01003102B1BD17B681B686FF076
:1035200010021A617B6808221A777B681B68DB69C6
:1035300003F44073002B03D0786800F033F905E002
:10354000786800F026F9786800F035F97B68002289
:103550001A777B681B681B6903F00103012B0ED1EE
:103560007B681B68DB6803F00103012B07D17B68D4
:103570001B686FF001021A61786801F079FE7B68C0
:103580001B681B6903F08003802B0ED17B681B68CE
:10359000DB6803F08003802B07D17B681B686FF02A
:1035A00080021A61786800F05EFA7B681B681B690C
:1035B00003F04003402B0ED17B681B68DB6803F0EF
:1035C0004003402B07D17B681B686FF040021A61F3
:1035D000786800F0F9F87B681B681B6903F020032A
:1035E000202B0ED17B681B68DB6803F02003202BA7
:1035F00007D17B681B686FF020021A61786800F0C1
:1036000029FA00BF0837BD4680BD80B584B000AF41
:10361000786039607B6893F83C30012B01D102233C
:10362000B3E07B68012283F83C207B68022283F8A8
:103630003D207B681B689B68FB60FB6823F0770379
:10364000FB60FB6823F47F43FB607B681B68FA68C0
:103650009A603B681B68B3F5005F3ED0B3F5005F2E
:1036600000F28780B3F5805F00F08580B3F5805F5E
:103670007FD8702B1AD0702B7BD8602B50D0602B4A
:1036800077D8502B3CD0502B73D8402B58D0402BA0
:103690006FD8302B64D0302B6BD8202B60D0202BF0
:1036A00067D8002B5CD0102B5AD062E07B6818687A
:1036B0003B6899683B685A683B68DB6800F067F9CB
:1036C0007B681B689B68FB60FB6843F07703FB60CB
:1036D0007B681B68FA689A604EE07B6818683B68F4
:1036E00099683B685A683B68DB6800F050F97B6872
:1036F0001B689A687B681B6842F480429A603BE0D2
:103700007B6818683B6859683B68DB681A4600F0BC
:10371000C7F87B681B685021184600F01EF92BE0A3
:103720007B6818683B6859683B68DB681A4600F09C
:10373000E5F87B681B686021184600F00EF91BE075
:103740007B6818683B6859683B68DB681A4600F07C
:10375000A7F87B681B684021184600F0FEF80BE0D4
:103760007B681A683B681B681946104600F0F5F83C
:1037700002E000BF00E000BF7B68012283F83D202B
:103780007B68002283F83C20002318461037BD4692
:1037900080BD80B483B000AF786000BF0C37BD46F9
:1037A00080BC704780B483B000AF786000BF0C3736
:1037B000BD4680BC704780B483B000AF786000BF66
:1037C0000C37BD4680BC704780B483B000AF7860D2
:1037D00000BF0C37BD4680BC7047000080B485B088
:1037E00000AF786039607B681B68FB607B68294AA2
:1037F00093420BD07B68B3F1804F07D07B68264A99
:10380000934203D07B68254A934208D1FB6823F09A
:103810007003FB603B685B68FA681343FB607B687E
:103820001C4A93420BD07B68B3F1804F07D07B6872
:10383000194A934203D07B68184A934208D1FB6827
:1038400023F44073FB603B68DB68FA681343FB605A
:10385000FB6823F080023B685B691343FB607B6875
:10386000FA681A603B689A687B68DA623B681A6893
:103870007B689A627B68074A934203D13B681A6966
:103880007B681A637B6801225A6100BF1437BD460A
:1038900080BC7047002C014000040040000800403C
:1038A00080B487B000AFF860B9607A60FB681B6ACB
:1038B0007B61FB681B6A23F00102FB681A62FB68EC
:1038C0009B693B613B6923F0F0033B617B681B0113
:1038D0003A6913433B617B6923F00A037B617A6990
:1038E000BB6813437B61FB683A699A61FB687A693C
:1038F0001A6200BF1C37BD4680BC704780B487B0D9
:1039000000AFF860B9607A60FB681B6A23F01002B0
:10391000FB681A62FB689B697B61FB681B6A3B6101
:103920007B6923F470437B617B681B037A691343D3
:103930007B613B6923F0A0033B61BB681B013A69D3
:1039400013433B61FB687A699A61FB683A691A62C2
:1039500000BF1C37BD4680BC704780B485B000AF47
:10396000786039607B689B68FB60FB6823F07003BC
:10397000FB603A68FB68134343F00703FB607B6816
:10398000FA689A6000BF1437BD4680BC704780B4A7
:1039900087B000AFF860B9607A603B60FB689B68F5
:1039A0007B617B6923F47F437B613B681A027B6800
:1039B0001A43BB6813437A6913437B61FB687A69D6
:1039C0009A6000BF1C37BD4680BC704780B485B08C
:1039D00000AF786039607B6893F83C30012B01D1EF
:1039E000022332E07B68012283F83C207B680222BC
:1039F00083F83D207B681B685B68FB607B681B6805
:103A00009B68BB60FB6823F07003FB603B681B682E
:103A1000FA681343FB60BB6823F08003BB603B681C
:103A20005B68BA681343BB607B681B68FA685A60BE
:103A30007B681B68BA689A607B68012283F83D2026
:103A40007B68002283F83C20002318461437BD46CB
:103A500080BC704780B483B000AF786000BF0C3783
:103A6000BD4680BC704780B483B000AF786000BFB3
:103A70000C37BD4680BC704780B582B000AF78601F
:103A80007B68002B01D101233FE07B6893F839303C
:103A9000DBB2002B06D17B68002283F838207868DF
:103AA00001F022FC7B68242283F839207B681B68A4
:103AB000DA687B681B6822F40052DA60786800F0EC
:103AC000E5FB7B681B681A697B681B6822F49042DF
:103AD0001A617B681B685A697B681B6822F02A029E
:103AE0005A617B681B68DA687B681B6842F4005285
:103AF000DA607B680022DA637B68202283F8392051
:103B00007B68202283F83A20002318460837BD46F8
:103B100080BD80B588B002AFF860B9603B601346E5
:103B2000FB8000237B61FB6893F83930DBB2202BEC
:103B300040F08380BB68002B02D0FB88002B01D1B2
:103B400001237BE0FB6893F83830012B01D102237D
:103B500074E0FB68012283F83820FB680022DA63F6
:103B6000FB68212283F83920FDF79CFB7861FB6814
:103B7000FA889A84FB68FA88DA8442E0FB68DB8C76
:103B80009BB2013B9AB2FB68DA84FB689B68B3F591
:103B9000805F22D13B6800937B6900228021F86816
:103BA00000F00BFA0346002B01D0032346E0BB686C
:103BB0003B613B691B881A46FB681B68C2F308021D
:103BC0005A60FB681B69002B03D1BB680233BB60E2
:103BD00017E0BB680133BB6013E03B6800937B696F
:103BE00000228021F86800F0E8F90346002B01D09C
:103BF000032323E0BB685A1CBA601A78FB681B6871
:103C00005A60FB68DB8C9BB2002BB7D13B680093FA
:103C10007B6900224021F86800F0CFF90346002BB1
:103C200001D003230AE0FB68202283F83920FB68D7
:103C3000002283F83820002300E0022318461837BA
:103C4000BD4680BD80B588B002AFF860B9603B600A
:103C50001346FB8000237B61FB6893F83A30DBB2AC
:103C6000202B40F09080BB68002B02D0FB88002BFB
:103C700001D1012388E0FB6893F83830012B01D192
:103C8000022381E0FB68012283F83820FB680022D0
:103C9000DA63FB68222283F83A20FDF703FB7861A0
:103CA000FB68FA889A85FB68FA88DA855CE0FB682D
:103CB000DB8D9BB2013B9AB2FB68DA85FB689B689F
:103CC000B3F5805F2BD13B6800937B6900222021F4
:103CD000F86800F072F90346002B01D0032353E08B
:103CE000BB683B61FB681B69002B0CD1FB681B6840
:103CF0005B689BB2C3F308039AB23B691A80BB6846
:103D00000233BB6030E0FB681B685B689BB2DBB2D0
:103D10009AB23B691A80BB680133BB6024E03B6800
:103D200000937B6900222021F86800F046F90346E1
:103D3000002B01D0032327E0FB681B69002B08D16F
:103D4000FB681B685968BB685A1CBA60CAB21A7013
:103D50000AE0FB681B685B68DAB2BB68591CB96093
:103D600002F07F02D2B21A70FB68DB8D9BB2002B8F
:103D70009DD1FB68202283F83A20FB68002283F85B
:103D80003820002300E0022318461837BD4680BDC6
:103D900080B588B000AF78607B681B681B68FB61EA
:103DA0007B681B68DB68BB617B681B685B697B6148
:103DB00000233B610023FB60FB6903F00F033B61C1
:103DC0003B69002B0DD1FB6903F02003002B08D0C9
:103DD000BB6903F02003002B03D0786800F0D5F90D
:103DE000CBE03B69002B00F0AB807B6903F0010363
:103DF000002B05D1BB6903F49073002B00F0A08069
:103E0000FB6903F00103002B0AD0BB6903F4807344
:103E1000002B05D07B68DB6B43F001027B68DA6323
:103E2000FB6903F00403002B0AD07B6903F0010354
:103E3000002B05D07B68DB6B43F002027B68DA6302
:103E4000FB6903F00203002B0AD07B6903F0010336
:103E5000002B05D07B68DB6B43F004027B68DA63E0
:103E6000FB6903F00803002B0AD07B6903F0010310
:103E7000002B05D07B68DB6B43F008027B68DA63BC
:103E80007B68DB6B002B77D0FB6903F02003002BF2
:103E900007D0BB6903F02003002B02D0786800F044
:103EA00074F97B681B685B6903F04003002B14BF47
:103EB00001230023DBB2FB607B68DB6B03F00803AC
:103EC000002B02D1FB68002B31D0786800F0BFF8DE
:103ED0007B681B685B6903F04003002B23D07B6881
:103EE0001B685A697B681B6822F040025A617B6834
:103EF0005B6B002B13D07B685B6B214A5A637B683A
:103F00005B6B1846FDF70AFB0346002B16D07B6857
:103F10005B6B5B6B7A68526B104698470EE0786873
:103F200000F042F80AE0786800F03EF806E07868B1
:103F300000F03AF87B680022DA631DE000BF1BE066
:103F4000FB6903F08003002B08D0BB6903F08003FA
:103F5000002B03D0786800F0ABF80EE0FB6903F0AB
:103F60004003002B09D0BB6903F04003002B04D0B1
:103F7000786800F0F2F800E000BF2037BD4680BD51
:103F80008940000880B483B000AF786000BF0C3770
:103F9000BD4680BC704780B483B000AF786000BF7E
:103FA0000C37BD4680BC704780B483B000AF7860EA
:103FB00000BF0C37BD4680BC704780B584B000AFF1
:103FC000F860B9603B601346FB712CE0BB69B3F14C
:103FD000FF3F28D0BB69002B07D0FDF763F90246ED
:103FE0003B68D31ABA699A421DD2FB681B68DA682B
:103FF000FB681B6822F4D072DA60FB681B685A69A0
:10400000FB681B6822F001025A61FB68202283F8DA
:104010003920FB68202283F83A20FB68002283F8CD
:10402000382003230FE0FB681B681A68BB68134045
:10403000BA689A420CBF01230023DBB21A46FB790F
:104040009A42C3D0002318461037BD4680BD80B4C5
:1040500083B000AF78607B681B68DA687B681B6898
:1040600022F49072DA607B681B685A697B681B686F
:1040700022F001025A617B68202283F83A2000BFB7
:104080000C37BD4680BC704780B584B000AF786007
:104090007B685B6AFB60FB680022DA85FB680022B4
:1040A000DA84F868FFF780FF00BF1037BD4680BD97
:1040B00080B485B000AF78607B6893F83930DBB2AC
:1040C000212B44D17B689B68B3F5805F1AD17B6854
:1040D0001B6AFB60FB681B881A467B681B68C2F37F
:1040E00008025A607B681B69002B05D17B681B6A3C
:1040F0009A1C7B681A620EE07B681B6A5A1C7B68FC
:104100001A6208E07B681B6A591C7A6811621A7887
:104110007B681B685A607B68DB8C9BB2013B9BB25F
:104120007A681946D184002B0FD17B681B68DA6846
:104130007B681B6822F08002DA607B681B68DA68A3
:104140007B681B6842F04002DA60002300E0022333
:1041500018461437BD4680BC704780B582B000AFAA
:1041600078607B681B68DA687B681B6822F0400215
:10417000DA607B68202283F839207868FFF702FF35
:10418000002318460837BD4680BD80B584B000AF17
:1041900078607B6893F83A30DBB2222B71D17B6870
:1041A0009B68B3F5805F23D17B689B6AFB607B686B
:1041B0001B69002B0ED17B681B685B689BB2C3F345
:1041C00008039AB2FB681A807B689B6A9A1C7B681A
:1041D0009A6229E07B681B685B689BB2DBB29AB28B
:1041E000FB681A807B689B6A5A1C7B689A621BE09A
:1041F0007B681B69002B0AD17B681B6858687B6849
:104200009B6A591C7A689162C2B21A700CE07B6892
:104210001B685B68DAB27B689B6A581C79688862A5
:1042200002F07F02D2B21A707B68DB8D9BB2013B39
:104230009BB27A681946D185002B20D17B681B6818
:10424000DA687B681B6822F02002DA607B681B68F2
:10425000DA687B681B6822F48072DA607B681B680E
:104260005A697B681B6822F001025A617B68202230
:1042700083F83A207868FFF78EFE002302E00023DF
:1042800000E0022318461037BD4680BD80B584B0DB
:1042900000AF78607B681B681B6923F440517B6822
:1042A000DA687B681B680A431A617B689A687B68D6
:1042B0001B691A437B685B691343FB607B681B685F
:1042C000DB6823F4B05323F00C037A681268F968B2
:1042D0000B43D3607B681B685B6923F440717B6888
:1042E0009A697B681B680A435A617B681B68524A5B
:1042F00093424ED1FEF7B4FFB860BA6813469B00F4
:1043000013449A001A447B685B689B00B2FBF3F38A
:104310004A4AA2FB03235B091901BA6813469B00B2
:1043200013449A001A447B685B689B00B2FBF3F26B
:10433000424BA3FB02035B09642000FB03F3D31A87
:104340001B0132333D4AA2FB03235B0903F0F00358
:104350001944BA6813469B0013449A001A447B68B8
:104360005B689B00B2FBF3F2344BA3FB02035B09D7
:10437000642000FB03F3D31A1B0132332F4AA2FB44
:1043800003235B0903F00F027B681B680A449A60F1
:104390004DE0FEF751FFB860BA6813469B00134426
:1043A0009A001A447B685B689B00B2FBF3F3234AD4
:1043B000A2FB03235B091901BA6813469B0013444F
:1043C0009A001A447B685B689B00B2FBF3F21B4BBC
:1043D000A3FB02035B09642000FB03F3D31A1B0158
:1043E0003233164AA2FB03235B0903F0F00319449E
:1043F000BA6813469B0013449A001A447B685B68B2
:104400009B00B2FBF3F20D4BA3FB02035B0964209C
:1044100000FB03F3D31A1B013233084AA2FB032328
:104420005B0903F00F027B681B680A449A6000BFB7
:104430001037BD4680BD00BF003801401F85EB51DD
:1044400080B586B000AF484B1B78002B2DD0FD2BDC
:104450007ED1464B1B78DBB2062B7BD9424B5B7877
:104460001A46424B1B78DBB2063B9A4272D13F4B55
:104470001B78DBB2063BFB753D4B3B613B4B1B782E
:10448000DBB2013B384AD35C9AB2384B1B78DBB2C3
:10449000023B3549CB5C9BB21B029BB21344FB81B0
:1044A00000BFFB89002B1FD05BE0304B1B78DBB2D9
:1044B000042B51D92D4B1B78DBB2043BFB752D4BE4
:1044C0003B612A4B1B78DBB2013B274AD35C9AB293
:1044D000264B1B78DBB2023B2349CB5C9BB21B0211
:1044E0009BB21344FB8124E03B691B787B73FB7D0B
:1044F000013B3B733B690133BB607B7B002B17D1D6
:104500003B7B022B2AD9BB681A781B4B1A70BB68FD
:104510005A781A4B1A70BB689A78194B1A70194B53
:1045200001221A7032220321322000F0DDF800E06F
:1045300000BF3B691B78FB71FB7D013BBB713B6995
:1045400001333B60FB79012B0AD100F001FA08E04E
:1045500000BF06E000BF04E000BF02E000BF00E0D3
:1045600000BF1837BD4680BDA0040020CC05002048
:10457000A4040020A204002010000020110000204C
:10458000240600202506002080B500AF0F4B1B78C5
:10459000DBB2002B17D00E4B1B78DBB20133DAB243
:1045A0000B4B1A700A4B1B78DBB2062B0CD9FFF7AA
:1045B00047FF084B00221A70044B00221A7006486D
:1045C000FEF7CEFE00E000BF80BD00BFCE0500209C
:1045D000CD050020CC0500202806002080B584B041
:1045E00000AF2A4B1B681B6803F02003202B1CD153
:1045F000274B1B78DBB2002B08D1264B00221A7008
:10460000254B01221A702548FEF787FE1F4B1B68B9
:1046100059681F4B1B78DBB25A1CD0B21C4A107071
:104620001A46C9B21E4B99542BE00023FB60174B6E
:104630001B681B68FB60154B1B685B68FB60FB68B5
:104640000023BB60114B1B681B68BB600F4B1B68D2
:104650005B68BB60BB6800237B600C4B1B681B68FE
:104660007B600A4B1B685B687B607B6800233B6058
:10467000064B1B681B683B60044B1B685B683B6018
:104680003B6800BF1037BD4680BD00BF68060020F4
:10469000CC050020CD050020CE05002028060020F6
:1046A000A004002080B485B000AF0346FB71002356
:1046B000FB8100237B7309E07B7B0A4AD35C9AB2BF
:1046C000FB891344FB817B7B01337B737A7BFB7912
:1046D0009A42F1D3FB89DBB218461437BD4680BC41
:1046E000704700BF7403002080B582B000AF03465E
:1046F000FB800B467B7113467B80114B1B78002B94
:104700001AD113E000224FF480510E48FDF717F93B
:10471000FB881846FCF7D0FD01224FF48051094870
:10472000FDF70DF97B881846FCF7C6FD7B795A1E0C
:104730007A71002BE6D100E000BF0837BD4680BD8E
:1047400024060020000C014080B58AB000AF6B4BFE
:10475000FC221A70694B06225A70684B0C229A7020
:10476000664B4422DA70654B54221A71634B4B221C
:104770005A71624B52229A71604B4622DA710820BC
:10478000FFF790FF03461A465C4B1A7200237B62C8
:104790000023FB615A4B1B681B68FB61584B1B686D
:1047A0005B68FB61FB690023BB61554B1B681B68A1
:1047B000BB61534B1B685B68BB61BB6900237B61BA
:1047C0004F4B1B681B687B614D4B1B685B687B61B3
:1047D0007B6900233B614A4B1B681B683B61484B6C
:1047E0001B685B683B613B694FF4FA7309224349DC
:1047F0004348FFF78EF94FF4FA73082241494048C5
:10480000FFF720FA0346002B36D04FF47A70FCF7FE
:1048100053FD7B6A01337B627B6A052BB8DD002385
:104820007B6200BF142205211420FFF75DFF642086
:10483000FCF742FD002387F8233014E00022012119
:104840003148FDF77CF87820FCF736FD0122012184
:104850002D48FDF774F8C820FCF72EFD97F823309B
:10486000013387F8233097F82330022BE6D940F63E
:10487000B830FCF721FD8BE700BF32220221322045
:10488000FFF732FF2148FEF795FD0023FB601C4B2C
:104890001B681B68FB601A4B1B685B68FB60FB684E
:1048A0000023BB60164B1B681B68BB60144B1B6866
:1048B0005B68BB60BB6800237B60114B1B681B6897
:1048C0007B600F4B1B685B687B607B6800233B60F1
:1048D0000B4B1B681B683B60094B1B685B683B60AC
:1048E0003B68074B1B68DA68054B1B6842F02002E7
:1048F000DA6000BF2837BD4680BD00BF74030020CA
:1049000068060020A0040020000C014028060020BA
:1049100080B582B000AF0346FB710B4B00221A70CA
:10492000094AFB795370FB799BB202339AB24FF478
:10493000FA7305490548FFF7ECF8C820FCF7BCFC02
:1049400000BF0837BD4680BD740300206806002004
:1049500080B500AF094B1B6800221A70074B1B681B
:10496000013301221A800320FFF7D2FF1422032112
:104970001420FFF7B9FE00BF80BD00BF0C0000206F
:1049800080B58AB000AF704B1B68DA686E4B1B684D
:1049900022F02002DA6000233B626B4B1B681B682D
:1049A0003B62694B1B685B683B623B6A0023FB61AF
:1049B000654B1B681B68FB61634B1B685B68FB6195
:1049C000FB690023BB61604B1B681B68BB615E4BCE
:1049D0001B685B68BB61BB6900237B615A4B1B682A
:1049E0001B687B61584B1B685B687B617B69574B1D
:1049F000FC221A70554B06225A70544B0B229A70A7
:104A0000524B4422DA70514B54221A714F4B4B22B5
:104A10005A714E4B52229A714C4B4622DA71082041
:104A2000FFF740FE03461A46484B1A724FF4FA73DA
:104A3000092246494448FFF76CF84FF4FA63102204
:104A400043494148FFF7FEF8034687F82730C8205E
:104A5000FCF732FC97F82730002B3CD13D4B1B680C
:104A600002221A703B4B1B680133394A12791A70C3
:104A7000384B1B680233364A92791A70354B1B68E3
:104A80000333334A52791A70324B1B680433304A6D
:104A9000527A1A702F4B1B6805332D4AD27A1A703E
:104AA0002C4B1B6806332A4A927A1A70294B1B68D2
:104AB0000733274A127B1A70264B1B680833244A97
:104AC000927B1A70234B1B680933214A527B1A7060
:104AD0000A20FFF71DFF00233B611B4B1B681B686F
:104AE0003B61194B1B685B683B613B690023FB60C2
:104AF000154B1B681B68FB60134B1B685B68FB60F6
:104B0000FB680023BB60104B1B681B68BB600E4B2F
:104B10001B685B68BB60BB6800237B600A4B1B683B
:104B20001B687B60084B1B685B687B607B68064B7F
:104B30001B68DA68044B1B6842F02002DA6000BF91
:104B40002837BD4680BD00BF6806002074030020E2
:104B5000A00400200C00002080B58AB000AF0346FE
:104B6000FB713C4B1B68DA683A4B1B6822F0200251
:104B7000DA6000237B62374B1B681B687B62354B16
:104B80001B685B687B627B6A00233B62314B1B685E
:104B90001B683B622F4B1B685B683B623B6A0023D0
:104BA000FB612C4B1B681B68FB612A4B1B685B6815
:104BB000FB61FB690023BB61264B1B681B68BB6163
:104BC000244B1B685B68BB61BB69234B1B680322DA
:104BD0001A70214B1B680133FA791A700220FFF713
:104BE00097FE00237B611B4B1B681B687B61194B85
:104BF0001B685B687B617B6900233B61154B1B680D
:104C00001B683B61134B1B685B683B613B6900237E
:104C1000FB60104B1B681B68FB600E4B1B685B68DE
:104C2000FB60FB680023BB600A4B1B681B68BB6012
:104C3000084B1B685B68BB60BB68064B1B68DA6887
:104C4000044B1B6842F02002DA6000BF2837BD46E3
:104C500080BD00BF680600200C00002080B588B031
:104C600000AF07F1100300221A605A609A60DA6000
:104C70002B4B9B692A4A43F020039361284B9B6985
:104C800003F02003FB60FB68254B9B69244A43F03B
:104C900004039361224B9B6903F00403BB60BB6870
:104CA0001F4B9B691E4A43F0080393611C4B9B6991
:104CB00003F008037B607B68002241F20101194880
:104CC000FCF73DFE41F201033B6101237B610023C0
:104CD000BB610223FB6107F1100319461148FCF781
:104CE00093FC4FF480633B6100237B610123BB6134
:104CF00007F1100319460B48FCF786FC4FF480734C
:104D00003B6100237B610123BB6107F1100319465E
:104D10000548FCF779FC00BF2037BD4680BD00BFC9
:104D200000100240000C01400008014080B500AFB7
:104D3000124B134A1A60114B124A5A600F4B002251
:104D40009A600E4B0022DA600C4B4FF480421A61DD
:104D50000A4B00225A61094B00229A61074B00223C
:104D6000DA61064B00221A620448FCF701FE034692
:104D7000002B01D000F059F900BF80BDD005002004
:104D800000540040A086010080B588B000AF786074
:104D900007F1100300221A605A609A60DA607B689B
:104DA0001B68154A934223D1144B9B69134A43F065
:104DB00008039361114B9B6903F00803FB60FB68D8
:104DC000C0233B6112237B610323FB6107F11003C6
:104DD00019460B48FCF718FC084BDB69074A43F4FB
:104DE0000013D361054BDB6903F40013BB60BB68A0
:104DF00000BF2037BD4680BD005400400010024077
:104E0000000C014080B588B000AFFCF7F3F900F06A
:104E1000C7F8FFF723FF00F03DFAFFF787FF00F028
:104E2000B3F901224FF480515848FCF788FD012264
:104E300001215648FCF783FDFFF786FCFFF788FD4C
:104E4000FFF79EFD0023FB610023FB76FCF72AFAA7
:104E500078610023FB74FCF725FAF860FCF722FA6E
:104E6000B860FCF71FFA7860494B1B78002B77D0AD
:104E7000484B1B78002B36D0FBF75EFF464B1B7868
:104E8000DBB2002B21D10123FB763222022132201A
:104E9000FFF72AFC7A68FB69D31A42F21072934238
:104EA00021D97A687B69D31AB3F57A7F1BD97B68DD
:104EB000FB617B687B610120FFF74EFE142202211B
:104EC0004FF49670FFF710FC0DE07A687B69D31AF7
:104ED00042F21072934201D90023FB76FB7E002B35
:104EE00001D17B687B612D4B1B78002B3AD04FF4AE
:104EF00080612648FCF70CFD0346002B21D10123DD
:104F0000FB74322202213220FFF7EEFB7A68FB6944
:104F1000D31A42F21072934225D97A68FB68D31AE9
:104F2000B3F57A7F1FD97B68FB617B68FB6000204B
:104F3000FFF712FE322202214FF49670FFF7D4FBE6
:104F400011E07A68FB68D31A42F21072934201D9D9
:104F50000023FB74FB7C002B04D17B68FB6002E028
:104F600000BF00E000BFFCF79DF978607A68BB687D
:104F7000D31A41F28832934203D9FFF701FD7B68CF
:104F8000BB600A20FCF798F96BE700BF000C0140FA
:104F90002506002011000020000000201000002045
:104FA00080B590B000AF07F1180328220021184601
:104FB00000F036FA3B1D00221A605A609A60DA60EF
:104FC0001A610123BB614FF48033FB6100233B6214
:104FD0000123BB6202237B634FF48033BB634FF436
:104FE000E013FB6307F118031846FDF751FD034674
:104FF000002B01D000F019F80F237B600223BB6067
:105000000023FB604FF480633B6100237B613B1D09
:1050100002211846FDF7BCFF0346002B01D000F02B
:1050200004F800BF4037BD4680BD80B400AF00BF6C
:10503000BD4680BC7047000080B485B000AF154B02
:105040009B69144A43F001039361124B9B6903F07F
:105050000103BB60BB680F4BDB690E4A43F0805312
:10506000D3610C4BDB6903F080537B607B680A4B98
:105070005B68FB60FB6823F0E063FB60FB6843F068
:105080000073FB60044AFB68536000BF1437BD46E1
:1050900080BC7047001002400000014080B400AFA7
:1050A00000BFBD4680BC704780B400AFFEE780B44F
:1050B00000AFFEE780B400AFFEE780B400AFFEE7CC
:1050C00080B400AF00BFBD4680BC704780B400AF65
:1050D00000BFBD4680BC704780B400AF00BFBD4676
:1050E00080BC704780B500AFFCF7CAF800BF80BD38
:1050F00080B500AF0348FEF780F9FFF745FA00BF1F
:1051000080BD00BF2806002080B500AF0348FEF731
:105110003FFEFFF763FA00BF80BD00BF68060020B6
:1051200080B400AF154B1B68144A43F001031360B1
:10513000124B5A681149124B13404B600F4B1B68BE
:105140000E4A23F0847323F4803313600B4B1B68E7
:105150000A4A23F480231360084B5B68074A23F450
:10516000FE035360054B4FF41F029A60054B4FF04E
:1051700000629A6000BFBD4680BC704700100240CC
:105180000000FFF800ED00E080B586B000AF07F149
:10519000080300221A605A609A60DA603B460022D7
:1051A0001A605A601D4B1E4A1A601C4B40F2CF22F7
:1051B0005A601A4B00229A60184B6322DA60174B30
:1051C00000221A61154B00229A611448FEF77AF802
:1051D0000346002B01D0FFF728FF4FF48053BB603C
:1051E00007F1080319460D48FEF70FFA0346002B96
:1051F00001D0FFF71AFF00233B6000237B603B4692
:1052000019460648FEF7E2FB0346002B01D0FFF7E4
:105210000CFF00BF1837BD4680BD00BF2806002028
:105220000004004080B584B000AF78607B681B68E4
:105230000D4A934213D10D4BDB690C4A43F0020334
:10524000D3610A4BDB6903F00203FB60FB680022B9
:1052500002211D20FCF72BF91D20FCF744F900BFAB
:105260001037BD4680BD00BF000400400010024062
:1052700080B582B000AF78607B681A68044B1B6809
:105280009A4201D1FFF780F900BF0837BD4680BDC3
:105290002806002080B500AF114B124A1A60104B4F
:1052A0004FF416425A600E4B00229A600C4B0022BB
:1052B000DA600B4B00221A61094B0C225A61084B31
:1052C00000229A61064B0022DA610548FEF7D4FB02
:1052D0000346002B01D0FFF7A8FE00BF80BD00BF32
:1052E000680600200044004080B588B000AF7860B8
:1052F00007F1100300221A605A609A60DA607B6836
:105300001B681F4A934237D11E4BDB691D4A43F489
:105310000033D3611B4BDB6903F40033FB60FB6894
:10532000184B9B69174A43F004039361154B9B6923
:1053300003F00403BB60BB6804233B6102237B6171
:105340000323FB6107F1100319460F48FCF75CF9D2
:1053500008233B6100237B610023BB6107F110033D
:1053600019460948FCF750F9002201212620FCF7D4
:105370009EF82620FCF7B7F800BF2037BD4680BD59
:10538000004400400010024000080140002103E0FA
:105390000B4B5B58435004310A480B4B42189A425E
:1053A000F6D30A4A02E0002342F8043B084B9A4233
:1053B000F9D3FFF7B5FE00F00FF8FFF723FD7047B4
:1053C0007854000800000020180000201800002079
:1053D000A8060020FEE7000070B500260C4D0D4C1D
:1053E000641BA410A64209D100F022F800260A4D41
:1053F0000A4C641BA410A64205D170BD55F8043BAD
:1054000098470136EEE755F8043B98470136F2E736
:105410007054000870540008705400087454000858
:1054200003460244934200D1704703F8011BF9E799
:10543000F8B500BFF8BC08BC9E467047F8B500BF81
:08544000F8BC08BC9E46704751
:1054480002030405060708090A0B0C0D0E0F1010BD
:10545800000000000000000001020304060708091C
:08546800000000000102030432
:0454700035010008FA
:04547400110100081A
:105478000100000010000000010000007603002079
:08548800010100000024F40002
:040000050800538D0F
:00000001FF
